{
  "_format": "hh-sol-artifact-1",
  "contractName": "SustainableProductNFT",
  "sourceName": "contracts/Sustainable.sol",
  "abi": [
    {
      "inputs": [],
      "stateMutability": "nonpayable",
      "type": "constructor"
    },
    {
      "inputs": [
        {
          "internalType": "address",
          "name": "sender",
          "type": "address"
        },
        {
          "internalType": "uint256",
          "name": "tokenId",
          "type": "uint256"
        },
        {
          "internalType": "address",
          "name": "owner",
          "type": "address"
        }
      ],
      "name": "ERC721IncorrectOwner",
      "type": "error"
    },
    {
      "inputs": [
        {
          "internalType": "address",
          "name": "operator",
          "type": "address"
        },
        {
          "internalType": "uint256",
          "name": "tokenId",
          "type": "uint256"
        }
      ],
      "name": "ERC721InsufficientApproval",
      "type": "error"
    },
    {
      "inputs": [
        {
          "internalType": "address",
          "name": "approver",
          "type": "address"
        }
      ],
      "name": "ERC721InvalidApprover",
      "type": "error"
    },
    {
      "inputs": [
        {
          "internalType": "address",
          "name": "operator",
          "type": "address"
        }
      ],
      "name": "ERC721InvalidOperator",
      "type": "error"
    },
    {
      "inputs": [
        {
          "internalType": "address",
          "name": "owner",
          "type": "address"
        }
      ],
      "name": "ERC721InvalidOwner",
      "type": "error"
    },
    {
      "inputs": [
        {
          "internalType": "address",
          "name": "receiver",
          "type": "address"
        }
      ],
      "name": "ERC721InvalidReceiver",
      "type": "error"
    },
    {
      "inputs": [
        {
          "internalType": "address",
          "name": "sender",
          "type": "address"
        }
      ],
      "name": "ERC721InvalidSender",
      "type": "error"
    },
    {
      "inputs": [
        {
          "internalType": "uint256",
          "name": "tokenId",
          "type": "uint256"
        }
      ],
      "name": "ERC721NonexistentToken",
      "type": "error"
    },
    {
      "inputs": [
        {
          "internalType": "address",
          "name": "owner",
          "type": "address"
        }
      ],
      "name": "OwnableInvalidOwner",
      "type": "error"
    },
    {
      "inputs": [
        {
          "internalType": "address",
          "name": "account",
          "type": "address"
        }
      ],
      "name": "OwnableUnauthorizedAccount",
      "type": "error"
    },
    {
      "anonymous": false,
      "inputs": [
        {
          "indexed": true,
          "internalType": "address",
          "name": "owner",
          "type": "address"
        },
        {
          "indexed": true,
          "internalType": "address",
          "name": "approved",
          "type": "address"
        },
        {
          "indexed": true,
          "internalType": "uint256",
          "name": "tokenId",
          "type": "uint256"
        }
      ],
      "name": "Approval",
      "type": "event"
    },
    {
      "anonymous": false,
      "inputs": [
        {
          "indexed": true,
          "internalType": "address",
          "name": "owner",
          "type": "address"
        },
        {
          "indexed": true,
          "internalType": "address",
          "name": "operator",
          "type": "address"
        },
        {
          "indexed": false,
          "internalType": "bool",
          "name": "approved",
          "type": "bool"
        }
      ],
      "name": "ApprovalForAll",
      "type": "event"
    },
    {
      "anonymous": false,
      "inputs": [
        {
          "indexed": true,
          "internalType": "address",
          "name": "previousOwner",
          "type": "address"
        },
        {
          "indexed": true,
          "internalType": "address",
          "name": "newOwner",
          "type": "address"
        }
      ],
      "name": "OwnershipTransferred",
      "type": "event"
    },
    {
      "anonymous": false,
      "inputs": [
        {
          "indexed": true,
          "internalType": "address",
          "name": "buyer",
          "type": "address"
        },
        {
          "indexed": false,
          "internalType": "uint256",
          "name": "tokenId",
          "type": "uint256"
        },
        {
          "indexed": false,
          "internalType": "string",
          "name": "ipfsMetadataHash",
          "type": "string"
        }
      ],
      "name": "ProductMinted",
      "type": "event"
    },
    {
      "anonymous": false,
      "inputs": [
        {
          "indexed": true,
          "internalType": "address",
          "name": "submitter",
          "type": "address"
        },
        {
          "indexed": false,
          "internalType": "uint256",
          "name": "productId",
          "type": "uint256"
        }
      ],
      "name": "ProductSubmitted",
      "type": "event"
    },
    {
      "anonymous": false,
      "inputs": [
        {
          "indexed": true,
          "internalType": "address",
          "name": "from",
          "type": "address"
        },
        {
          "indexed": true,
          "internalType": "address",
          "name": "to",
          "type": "address"
        },
        {
          "indexed": true,
          "internalType": "uint256",
          "name": "tokenId",
          "type": "uint256"
        }
      ],
      "name": "Transfer",
      "type": "event"
    },
    {
      "anonymous": false,
      "inputs": [
        {
          "indexed": true,
          "internalType": "address",
          "name": "userAddress",
          "type": "address"
        }
      ],
      "name": "UserLoggedIn",
      "type": "event"
    },
    {
      "inputs": [
        {
          "internalType": "address",
          "name": "to",
          "type": "address"
        },
        {
          "internalType": "uint256",
          "name": "tokenId",
          "type": "uint256"
        }
      ],
      "name": "approve",
      "outputs": [],
      "stateMutability": "nonpayable",
      "type": "function"
    },
    {
      "inputs": [
        {
          "internalType": "address",
          "name": "owner",
          "type": "address"
        }
      ],
      "name": "balanceOf",
      "outputs": [
        {
          "internalType": "uint256",
          "name": "",
          "type": "uint256"
        }
      ],
      "stateMutability": "view",
      "type": "function"
    },
    {
      "inputs": [
        {
          "internalType": "uint256",
          "name": "tokenId",
          "type": "uint256"
        }
      ],
      "name": "getApproved",
      "outputs": [
        {
          "internalType": "address",
          "name": "",
          "type": "address"
        }
      ],
      "stateMutability": "view",
      "type": "function"
    },
    {
      "inputs": [],
      "name": "getProductCount",
      "outputs": [
        {
          "internalType": "uint256",
          "name": "",
          "type": "uint256"
        }
      ],
      "stateMutability": "view",
      "type": "function"
    },
    {
      "inputs": [
        {
          "internalType": "uint256",
          "name": "productId",
          "type": "uint256"
        }
      ],
      "name": "getProductDetails",
      "outputs": [
        {
          "internalType": "string",
          "name": "productName",
          "type": "string"
        },
        {
          "internalType": "string",
          "name": "description",
          "type": "string"
        },
        {
          "internalType": "string",
          "name": "ipfsMetadataHash",
          "type": "string"
        },
        {
          "internalType": "string",
          "name": "sustainabilityClaims",
          "type": "string"
        },
        {
          "internalType": "uint256",
          "name": "nftTokenId",
          "type": "uint256"
        },
        {
          "internalType": "bool",
          "name": "isMinted",
          "type": "bool"
        },
        {
          "internalType": "address",
          "name": "creator",
          "type": "address"
        }
      ],
      "stateMutability": "view",
      "type": "function"
    },
    {
      "inputs": [
        {
          "internalType": "address",
          "name": "owner",
          "type": "address"
        },
        {
          "internalType": "address",
          "name": "operator",
          "type": "address"
        }
      ],
      "name": "isApprovedForAll",
      "outputs": [
        {
          "internalType": "bool",
          "name": "",
          "type": "bool"
        }
      ],
      "stateMutability": "view",
      "type": "function"
    },
    {
      "inputs": [],
      "name": "login",
      "outputs": [],
      "stateMutability": "nonpayable",
      "type": "function"
    },
    {
      "inputs": [],
      "name": "name",
      "outputs": [
        {
          "internalType": "string",
          "name": "",
          "type": "string"
        }
      ],
      "stateMutability": "view",
      "type": "function"
    },
    {
      "inputs": [],
      "name": "nextTokenId",
      "outputs": [
        {
          "internalType": "uint256",
          "name": "",
          "type": "uint256"
        }
      ],
      "stateMutability": "view",
      "type": "function"
    },
    {
      "inputs": [],
      "name": "nftPrice",
      "outputs": [
        {
          "internalType": "uint256",
          "name": "",
          "type": "uint256"
        }
      ],
      "stateMutability": "view",
      "type": "function"
    },
    {
      "inputs": [],
      "name": "owner",
      "outputs": [
        {
          "internalType": "address",
          "name": "",
          "type": "address"
        }
      ],
      "stateMutability": "view",
      "type": "function"
    },
    {
      "inputs": [
        {
          "internalType": "uint256",
          "name": "tokenId",
          "type": "uint256"
        }
      ],
      "name": "ownerOf",
      "outputs": [
        {
          "internalType": "address",
          "name": "",
          "type": "address"
        }
      ],
      "stateMutability": "view",
      "type": "function"
    },
    {
      "inputs": [],
      "name": "productCount",
      "outputs": [
        {
          "internalType": "uint256",
          "name": "",
          "type": "uint256"
        }
      ],
      "stateMutability": "view",
      "type": "function"
    },
    {
      "inputs": [
        {
          "internalType": "uint256",
          "name": "",
          "type": "uint256"
        }
      ],
      "name": "products",
      "outputs": [
        {
          "internalType": "string",
          "name": "productName",
          "type": "string"
        },
        {
          "internalType": "string",
          "name": "description",
          "type": "string"
        },
        {
          "internalType": "string",
          "name": "ipfsMetadataHash",
          "type": "string"
        },
        {
          "internalType": "string",
          "name": "sustainabilityClaims",
          "type": "string"
        },
        {
          "internalType": "uint256",
          "name": "nftTokenId",
          "type": "uint256"
        },
        {
          "internalType": "bool",
          "name": "isMinted",
          "type": "bool"
        },
        {
          "internalType": "address",
          "name": "creator",
          "type": "address"
        }
      ],
      "stateMutability": "view",
      "type": "function"
    },
    {
      "inputs": [],
      "name": "renounceOwnership",
      "outputs": [],
      "stateMutability": "nonpayable",
      "type": "function"
    },
    {
      "inputs": [
        {
          "internalType": "address",
          "name": "from",
          "type": "address"
        },
        {
          "internalType": "address",
          "name": "to",
          "type": "address"
        },
        {
          "internalType": "uint256",
          "name": "tokenId",
          "type": "uint256"
        }
      ],
      "name": "safeTransferFrom",
      "outputs": [],
      "stateMutability": "nonpayable",
      "type": "function"
    },
    {
      "inputs": [
        {
          "internalType": "address",
          "name": "from",
          "type": "address"
        },
        {
          "internalType": "address",
          "name": "to",
          "type": "address"
        },
        {
          "internalType": "uint256",
          "name": "tokenId",
          "type": "uint256"
        },
        {
          "internalType": "bytes",
          "name": "data",
          "type": "bytes"
        }
      ],
      "name": "safeTransferFrom",
      "outputs": [],
      "stateMutability": "nonpayable",
      "type": "function"
    },
    {
      "inputs": [
        {
          "internalType": "address",
          "name": "operator",
          "type": "address"
        },
        {
          "internalType": "bool",
          "name": "approved",
          "type": "bool"
        }
      ],
      "name": "setApprovalForAll",
      "outputs": [],
      "stateMutability": "nonpayable",
      "type": "function"
    },
    {
      "inputs": [
        {
          "internalType": "uint256",
          "name": "productId",
          "type": "uint256"
        },
        {
          "internalType": "string",
          "name": "_productName",
          "type": "string"
        },
        {
          "internalType": "string",
          "name": "_description",
          "type": "string"
        },
        {
          "internalType": "string",
          "name": "_ipfsMetadataHash",
          "type": "string"
        },
        {
          "internalType": "string",
          "name": "_sustainabilityClaims",
          "type": "string"
        }
      ],
      "name": "submitAndMintProduct",
      "outputs": [],
      "stateMutability": "payable",
      "type": "function"
    },
    {
      "inputs": [
        {
          "internalType": "bytes4",
          "name": "interfaceId",
          "type": "bytes4"
        }
      ],
      "name": "supportsInterface",
      "outputs": [
        {
          "internalType": "bool",
          "name": "",
          "type": "bool"
        }
      ],
      "stateMutability": "view",
      "type": "function"
    },
    {
      "inputs": [],
      "name": "symbol",
      "outputs": [
        {
          "internalType": "string",
          "name": "",
          "type": "string"
        }
      ],
      "stateMutability": "view",
      "type": "function"
    },
    {
      "inputs": [
        {
          "internalType": "uint256",
          "name": "tokenId",
          "type": "uint256"
        }
      ],
      "name": "tokenURI",
      "outputs": [
        {
          "internalType": "string",
          "name": "",
          "type": "string"
        }
      ],
      "stateMutability": "view",
      "type": "function"
    },
    {
      "inputs": [
        {
          "internalType": "address",
          "name": "from",
          "type": "address"
        },
        {
          "internalType": "address",
          "name": "to",
          "type": "address"
        },
        {
          "internalType": "uint256",
          "name": "tokenId",
          "type": "uint256"
        }
      ],
      "name": "transferFrom",
      "outputs": [],
      "stateMutability": "nonpayable",
      "type": "function"
    },
    {
      "inputs": [
        {
          "internalType": "address",
          "name": "newOwner",
          "type": "address"
        }
      ],
      "name": "transferOwnership",
      "outputs": [],
      "stateMutability": "nonpayable",
      "type": "function"
    },
    {
      "inputs": [
        {
          "internalType": "address",
          "name": "",
          "type": "address"
        }
      ],
      "name": "users",
      "outputs": [
        {
          "internalType": "address",
          "name": "userAddress",
          "type": "address"
        },
        {
          "internalType": "bool",
          "name": "isRegistered",
          "type": "bool"
        }
      ],
      "stateMutability": "view",
      "type": "function"
    },
    {
      "inputs": [],
      "name": "withdraw",
      "outputs": [],
      "stateMutability": "nonpayable",
      "type": "function"
    }
  ],
  "bytecode": "0x6080604052662386f26fc10000600b553480156200001c57600080fd5b50336040518060400160405280601581526020017f5375737461696e61626c6550726f647563744e465400000000000000000000008152506040518060400160405280600581526020017f53504e465400000000000000000000000000000000000000000000000000000081525081600090816200009b91906200048d565b508060019081620000ad91906200048d565b505050600073ffffffffffffffffffffffffffffffffffffffff168173ffffffffffffffffffffffffffffffffffffffff1603620001255760006040517f1e4fbdf70000000000000000000000000000000000000000000000000000000081526004016200011c9190620005b9565b60405180910390fd5b62000136816200014d60201b60201c565b5060006009819055506000600a81905550620005d6565b6000600660009054906101000a900473ffffffffffffffffffffffffffffffffffffffff16905081600660006101000a81548173ffffffffffffffffffffffffffffffffffffffff021916908373ffffffffffffffffffffffffffffffffffffffff1602179055508173ffffffffffffffffffffffffffffffffffffffff168173ffffffffffffffffffffffffffffffffffffffff167f8be0079c531659141344cd1fd0a4f28419497f9722a3daafe3b4186f6b6457e060405160405180910390a35050565b600081519050919050565b7f4e487b7100000000000000000000000000000000000000000000000000000000600052604160045260246000fd5b7f4e487b7100000000000000000000000000000000000000000000000000000000600052602260045260246000fd5b600060028204905060018216806200029557607f821691505b602082108103620002ab57620002aa6200024d565b5b50919050565b60008190508160005260206000209050919050565b60006020601f8301049050919050565b600082821b905092915050565b600060088302620003157fffffffffffffffffffffffffffffffffffffffffffffffffffffffffffffffff82620002d6565b620003218683620002d6565b95508019841693508086168417925050509392505050565b6000819050919050565b6000819050919050565b60006200036e62000368620003628462000339565b62000343565b62000339565b9050919050565b6000819050919050565b6200038a836200034d565b620003a2620003998262000375565b848454620002e3565b825550505050565b600090565b620003b9620003aa565b620003c68184846200037f565b505050565b5b81811015620003ee57620003e2600082620003af565b600181019050620003cc565b5050565b601f8211156200043d576200040781620002b1565b6200041284620002c6565b8101602085101562000422578190505b6200043a6200043185620002c6565b830182620003cb565b50505b505050565b600082821c905092915050565b6000620004626000198460080262000442565b1980831691505092915050565b60006200047d83836200044f565b9150826002028217905092915050565b620004988262000213565b67ffffffffffffffff811115620004b457620004b36200021e565b5b620004c082546200027c565b620004cd828285620003f2565b600060209050601f831160018114620005055760008415620004f0578287015190505b620004fc85826200046f565b8655506200056c565b601f1984166200051586620002b1565b60005b828110156200053f5784890151825560018201915060208501945060208101905062000518565b868310156200055f57848901516200055b601f8916826200044f565b8355505b6001600288020188555050505b505050505050565b600073ffffffffffffffffffffffffffffffffffffffff82169050919050565b6000620005a18262000574565b9050919050565b620005b38162000594565b82525050565b6000602082019050620005d06000830184620005a8565b92915050565b6133ef80620005e66000396000f3fe6080604052600436106101815760003560e01c8063715018a6116100d1578063a87430ba1161008a578063c87b56dd11610064578063c87b56dd1461056e578063e0f6ef87146105ab578063e985e9c5146105d6578063f2fde38b1461061357610181565b8063a87430ba146104f0578063b34e97e81461052e578063b88d4fde1461054557610181565b8063715018a6146103ec57806375794a3c146104035780637acc0b201461042e5780638da5cb5b1461047157806395d89b411461049c578063a22cb465146104c757610181565b8063318bf6af1161013e5780634a348da9116101185780634a348da9146103045780636352211e1461032f5780636813b53b1461036c57806370a08231146103af57610181565b8063318bf6af146102a85780633ccfd60b146102c457806342842e0e146102db57610181565b806301ffc9a71461018657806306fdde03146101c3578063081812fc146101ee578063095ea7b31461022b5780630d39fc811461025457806323b872dd1461027f575b600080fd5b34801561019257600080fd5b506101ad60048036038101906101a89190612445565b61063c565b6040516101ba919061248d565b60405180910390f35b3480156101cf57600080fd5b506101d861071e565b6040516101e59190612538565b60405180910390f35b3480156101fa57600080fd5b5061021560048036038101906102109190612590565b6107b0565b60405161022291906125fe565b60405180910390f35b34801561023757600080fd5b50610252600480360381019061024d9190612645565b6107cc565b005b34801561026057600080fd5b506102696107e2565b6040516102769190612694565b60405180910390f35b34801561028b57600080fd5b506102a660048036038101906102a191906126af565b6107e8565b005b6102c260048036038101906102bd9190612837565b6108ea565b005b3480156102d057600080fd5b506102d9610c34565b005b3480156102e757600080fd5b5061030260048036038101906102fd91906126af565b610c8c565b005b34801561031057600080fd5b50610319610cac565b6040516103269190612694565b60405180910390f35b34801561033b57600080fd5b5061035660048036038101906103519190612590565b610cb6565b60405161036391906125fe565b60405180910390f35b34801561037857600080fd5b50610393600480360381019061038e9190612590565b610cc8565b6040516103a69796959493929190612922565b60405180910390f35b3480156103bb57600080fd5b506103d660048036038101906103d191906129ad565b610f7f565b6040516103e39190612694565b60405180910390f35b3480156103f857600080fd5b50610401611039565b005b34801561040f57600080fd5b5061041861104d565b6040516104259190612694565b60405180910390f35b34801561043a57600080fd5b5061045560048036038101906104509190612590565b611053565b6040516104689796959493929190612922565b60405180910390f35b34801561047d57600080fd5b506104866112e2565b60405161049391906125fe565b60405180910390f35b3480156104a857600080fd5b506104b161130c565b6040516104be9190612538565b60405180910390f35b3480156104d357600080fd5b506104ee60048036038101906104e99190612a06565b61139e565b005b3480156104fc57600080fd5b50610517600480360381019061051291906129ad565b6113b4565b604051610525929190612a46565b60405180910390f35b34801561053a57600080fd5b50610543611405565b005b34801561055157600080fd5b5061056c60048036038101906105679190612b10565b6115b1565b005b34801561057a57600080fd5b5061059560048036038101906105909190612590565b6115ce565b6040516105a29190612538565b60405180910390f35b3480156105b757600080fd5b506105c0611663565b6040516105cd9190612694565b60405180910390f35b3480156105e257600080fd5b506105fd60048036038101906105f89190612b93565b611669565b60405161060a919061248d565b60405180910390f35b34801561061f57600080fd5b5061063a600480360381019061063591906129ad565b6116fd565b005b60007f80ac58cd000000000000000000000000000000000000000000000000000000007bffffffffffffffffffffffffffffffffffffffffffffffffffffffff1916827bffffffffffffffffffffffffffffffffffffffffffffffffffffffff1916148061070757507f5b5e139f000000000000000000000000000000000000000000000000000000007bffffffffffffffffffffffffffffffffffffffffffffffffffffffff1916827bffffffffffffffffffffffffffffffffffffffffffffffffffffffff1916145b80610717575061071682611783565b5b9050919050565b60606000805461072d90612c02565b80601f016020809104026020016040519081016040528092919081815260200182805461075990612c02565b80156107a65780601f1061077b576101008083540402835291602001916107a6565b820191906000526020600020905b81548152906001019060200180831161078957829003601f168201915b5050505050905090565b60006107bb826117ed565b506107c582611875565b9050919050565b6107de82826107d96118b2565b6118ba565b5050565b600b5481565b600073ffffffffffffffffffffffffffffffffffffffff168273ffffffffffffffffffffffffffffffffffffffff160361085a5760006040517f64a0ae9200000000000000000000000000000000000000000000000000000000815260040161085191906125fe565b60405180910390fd5b600061086e83836108696118b2565b6118cc565b90508373ffffffffffffffffffffffffffffffffffffffff168173ffffffffffffffffffffffffffffffffffffffff16146108e4578382826040517f64283d7b0000000000000000000000000000000000000000000000000000000081526004016108db93929190612c33565b60405180910390fd5b50505050565b600860003373ffffffffffffffffffffffffffffffffffffffff1673ffffffffffffffffffffffffffffffffffffffff16815260200190815260200160002060000160149054906101000a900460ff16610979576040517f08c379a000000000000000000000000000000000000000000000000000000000815260040161097090612cdc565b60405180910390fd5b846007600082815260200190815260200160002060050160009054906101000a900460ff16156109de576040517f08c379a00000000000000000000000000000000000000000000000000000000081526004016109d590612d48565b60405180910390fd5b600b54341015610a23576040517f08c379a0000000000000000000000000000000000000000000000000000000008152600401610a1a90612dda565b60405180910390fd5b6040518060e0016040528086815260200185815260200184815260200183815260200160095481526020016001151581526020013373ffffffffffffffffffffffffffffffffffffffff16815250600760008881526020019081526020016000206000820151816000019081610a999190612fa6565b506020820151816001019081610aaf9190612fa6565b506040820151816002019081610ac59190612fa6565b506060820151816003019081610adb9190612fa6565b506080820151816004015560a08201518160050160006101000a81548160ff02191690831515021790555060c08201518160050160016101000a81548173ffffffffffffffffffffffffffffffffffffffff021916908373ffffffffffffffffffffffffffffffffffffffff160217905550905050610b5c33600954611ae6565b3373ffffffffffffffffffffffffffffffffffffffff167fe255424a8c419f09af8bae5026afadabf88873eb00ed00bd41360f6cd34e67f960095485604051610ba6929190613078565b60405180910390a260096000815480929190610bc1906130d7565b9190505550600a6000815480929190610bd9906130d7565b91905055503373ffffffffffffffffffffffffffffffffffffffff167f8244fb67bceca0edd7e3f02c55c2a216f89fbfb575c0deb2f5657b453502606a87604051610c249190612694565b60405180910390a2505050505050565b610c3c611bdf565b610c446112e2565b73ffffffffffffffffffffffffffffffffffffffff166108fc479081150290604051600060405180830381858888f19350505050158015610c89573d6000803e3d6000fd5b50565b610ca7838383604051806020016040528060008152506115b1565b505050565b6000600a54905090565b6000610cc1826117ed565b9050919050565b606080606080600080600080600760008a815260200190815260200160002090508060000181600101826002018360030184600401548560050160009054906101000a900460ff168660050160019054906101000a900473ffffffffffffffffffffffffffffffffffffffff16868054610d4190612c02565b80601f0160208091040260200160405190810160405280929190818152602001828054610d6d90612c02565b8015610dba5780601f10610d8f57610100808354040283529160200191610dba565b820191906000526020600020905b815481529060010190602001808311610d9d57829003601f168201915b50505050509650858054610dcd90612c02565b80601f0160208091040260200160405190810160405280929190818152602001828054610df990612c02565b8015610e465780601f10610e1b57610100808354040283529160200191610e46565b820191906000526020600020905b815481529060010190602001808311610e2957829003601f168201915b50505050509550848054610e5990612c02565b80601f0160208091040260200160405190810160405280929190818152602001828054610e8590612c02565b8015610ed25780601f10610ea757610100808354040283529160200191610ed2565b820191906000526020600020905b815481529060010190602001808311610eb557829003601f168201915b50505050509450838054610ee590612c02565b80601f0160208091040260200160405190810160405280929190818152602001828054610f1190612c02565b8015610f5e5780601f10610f3357610100808354040283529160200191610f5e565b820191906000526020600020905b815481529060010190602001808311610f4157829003601f168201915b50505050509350975097509750975097509750975050919395979092949650565b60008073ffffffffffffffffffffffffffffffffffffffff168273ffffffffffffffffffffffffffffffffffffffff1603610ff25760006040517f89c62b64000000000000000000000000000000000000000000000000000000008152600401610fe991906125fe565b60405180910390fd5b600360008373ffffffffffffffffffffffffffffffffffffffff1673ffffffffffffffffffffffffffffffffffffffff168152602001908152602001600020549050919050565b611041611bdf565b61104b6000611c66565b565b60095481565b600760205280600052604060002060009150905080600001805461107690612c02565b80601f01602080910402602001604051908101604052809291908181526020018280546110a290612c02565b80156110ef5780601f106110c4576101008083540402835291602001916110ef565b820191906000526020600020905b8154815290600101906020018083116110d257829003601f168201915b50505050509080600101805461110490612c02565b80601f016020809104026020016040519081016040528092919081815260200182805461113090612c02565b801561117d5780601f106111525761010080835404028352916020019161117d565b820191906000526020600020905b81548152906001019060200180831161116057829003601f168201915b50505050509080600201805461119290612c02565b80601f01602080910402602001604051908101604052809291908181526020018280546111be90612c02565b801561120b5780601f106111e05761010080835404028352916020019161120b565b820191906000526020600020905b8154815290600101906020018083116111ee57829003601f168201915b50505050509080600301805461122090612c02565b80601f016020809104026020016040519081016040528092919081815260200182805461124c90612c02565b80156112995780601f1061126e57610100808354040283529160200191611299565b820191906000526020600020905b81548152906001019060200180831161127c57829003601f168201915b5050505050908060040154908060050160009054906101000a900460ff16908060050160019054906101000a900473ffffffffffffffffffffffffffffffffffffffff16905087565b6000600660009054906101000a900473ffffffffffffffffffffffffffffffffffffffff16905090565b60606001805461131b90612c02565b80601f016020809104026020016040519081016040528092919081815260200182805461134790612c02565b80156113945780601f1061136957610100808354040283529160200191611394565b820191906000526020600020905b81548152906001019060200180831161137757829003601f168201915b5050505050905090565b6113b06113a96118b2565b8383611d2c565b5050565b60086020528060005260406000206000915090508060000160009054906101000a900473ffffffffffffffffffffffffffffffffffffffff16908060000160149054906101000a900460ff16905082565b600860003373ffffffffffffffffffffffffffffffffffffffff1673ffffffffffffffffffffffffffffffffffffffff16815260200190815260200160002060000160149054906101000a900460ff1615611495576040517f08c379a000000000000000000000000000000000000000000000000000000000815260040161148c90613191565b60405180910390fd5b60405180604001604052803373ffffffffffffffffffffffffffffffffffffffff16815260200160011515815250600860003373ffffffffffffffffffffffffffffffffffffffff1673ffffffffffffffffffffffffffffffffffffffff16815260200190815260200160002060008201518160000160006101000a81548173ffffffffffffffffffffffffffffffffffffffff021916908373ffffffffffffffffffffffffffffffffffffffff16021790555060208201518160000160146101000a81548160ff0219169083151502179055509050503373ffffffffffffffffffffffffffffffffffffffff167f8d15fde878cff665868ed7579eb5081db6508d4249df61dcdd7699a5301d987460405160405180910390a2565b6115bc8484846107e8565b6115c884848484611e9b565b50505050565b606060005b60095481101561164a57826007600083815260200190815260200160002060040154036116375760076000828152602001908152602001600020600201604051602001611620919061328b565b60405160208183030381529060405291505061165e565b8080611642906130d7565b9150506115d3565b506040518060200160405280600081525090505b919050565b600a5481565b6000600560008473ffffffffffffffffffffffffffffffffffffffff1673ffffffffffffffffffffffffffffffffffffffff16815260200190815260200160002060008373ffffffffffffffffffffffffffffffffffffffff1673ffffffffffffffffffffffffffffffffffffffff16815260200190815260200160002060009054906101000a900460ff16905092915050565b611705611bdf565b600073ffffffffffffffffffffffffffffffffffffffff168173ffffffffffffffffffffffffffffffffffffffff16036117775760006040517f1e4fbdf700000000000000000000000000000000000000000000000000000000815260040161176e91906125fe565b60405180910390fd5b61178081611c66565b50565b60007f01ffc9a7000000000000000000000000000000000000000000000000000000007bffffffffffffffffffffffffffffffffffffffffffffffffffffffff1916827bffffffffffffffffffffffffffffffffffffffffffffffffffffffff1916149050919050565b6000806117f983612052565b9050600073ffffffffffffffffffffffffffffffffffffffff168173ffffffffffffffffffffffffffffffffffffffff160361186c57826040517f7e2732890000000000000000000000000000000000000000000000000000000081526004016118639190612694565b60405180910390fd5b80915050919050565b60006004600083815260200190815260200160002060009054906101000a900473ffffffffffffffffffffffffffffffffffffffff169050919050565b600033905090565b6118c7838383600161208f565b505050565b6000806118d884612052565b9050600073ffffffffffffffffffffffffffffffffffffffff168373ffffffffffffffffffffffffffffffffffffffff161461191a57611919818486612254565b5b600073ffffffffffffffffffffffffffffffffffffffff168173ffffffffffffffffffffffffffffffffffffffff16146119ab5761195c60008560008061208f565b6001600360008373ffffffffffffffffffffffffffffffffffffffff1673ffffffffffffffffffffffffffffffffffffffff168152602001908152602001600020600082825403925050819055505b600073ffffffffffffffffffffffffffffffffffffffff168573ffffffffffffffffffffffffffffffffffffffff1614611a2e576001600360008773ffffffffffffffffffffffffffffffffffffffff1673ffffffffffffffffffffffffffffffffffffffff168152602001908152602001600020600082825401925050819055505b846002600086815260200190815260200160002060006101000a81548173ffffffffffffffffffffffffffffffffffffffff021916908373ffffffffffffffffffffffffffffffffffffffff160217905550838573ffffffffffffffffffffffffffffffffffffffff168273ffffffffffffffffffffffffffffffffffffffff167fddf252ad1be2c89b69c2b068fc378daa952ba7f163c4a11628f55a4df523b3ef60405160405180910390a4809150509392505050565b600073ffffffffffffffffffffffffffffffffffffffff168273ffffffffffffffffffffffffffffffffffffffff1603611b585760006040517f64a0ae92000000000000000000000000000000000000000000000000000000008152600401611b4f91906125fe565b60405180910390fd5b6000611b66838360006118cc565b9050600073ffffffffffffffffffffffffffffffffffffffff168173ffffffffffffffffffffffffffffffffffffffff1614611bda5760006040517f73c6ac6e000000000000000000000000000000000000000000000000000000008152600401611bd191906125fe565b60405180910390fd5b505050565b611be76118b2565b73ffffffffffffffffffffffffffffffffffffffff16611c056112e2565b73ffffffffffffffffffffffffffffffffffffffff1614611c6457611c286118b2565b6040517f118cdaa7000000000000000000000000000000000000000000000000000000008152600401611c5b91906125fe565b60405180910390fd5b565b6000600660009054906101000a900473ffffffffffffffffffffffffffffffffffffffff16905081600660006101000a81548173ffffffffffffffffffffffffffffffffffffffff021916908373ffffffffffffffffffffffffffffffffffffffff1602179055508173ffffffffffffffffffffffffffffffffffffffff168173ffffffffffffffffffffffffffffffffffffffff167f8be0079c531659141344cd1fd0a4f28419497f9722a3daafe3b4186f6b6457e060405160405180910390a35050565b600073ffffffffffffffffffffffffffffffffffffffff168273ffffffffffffffffffffffffffffffffffffffff1603611d9d57816040517f5b08ba18000000000000000000000000000000000000000000000000000000008152600401611d9491906125fe565b60405180910390fd5b80600560008573ffffffffffffffffffffffffffffffffffffffff1673ffffffffffffffffffffffffffffffffffffffff16815260200190815260200160002060008473ffffffffffffffffffffffffffffffffffffffff1673ffffffffffffffffffffffffffffffffffffffff16815260200190815260200160002060006101000a81548160ff0219169083151502179055508173ffffffffffffffffffffffffffffffffffffffff168373ffffffffffffffffffffffffffffffffffffffff167f17307eab39ab6107e8899845ad3d59bd9653f200f220920489ca2b5937696c3183604051611e8e919061248d565b60405180910390a3505050565b60008373ffffffffffffffffffffffffffffffffffffffff163b111561204c578273ffffffffffffffffffffffffffffffffffffffff1663150b7a02611edf6118b2565b8685856040518563ffffffff1660e01b8152600401611f019493929190613302565b6020604051808303816000875af1925050508015611f3d57506040513d601f19601f82011682018060405250810190611f3a9190613363565b60015b611fc1573d8060008114611f6d576040519150601f19603f3d011682016040523d82523d6000602084013e611f72565b606091505b506000815103611fb957836040517f64a0ae92000000000000000000000000000000000000000000000000000000008152600401611fb091906125fe565b60405180910390fd5b805181602001fd5b63150b7a0260e01b7bffffffffffffffffffffffffffffffffffffffffffffffffffffffff1916817bffffffffffffffffffffffffffffffffffffffffffffffffffffffff19161461204a57836040517f64a0ae9200000000000000000000000000000000000000000000000000000000815260040161204191906125fe565b60405180910390fd5b505b50505050565b60006002600083815260200190815260200160002060009054906101000a900473ffffffffffffffffffffffffffffffffffffffff169050919050565b80806120c85750600073ffffffffffffffffffffffffffffffffffffffff168273ffffffffffffffffffffffffffffffffffffffff1614155b156121fc5760006120d8846117ed565b9050600073ffffffffffffffffffffffffffffffffffffffff168373ffffffffffffffffffffffffffffffffffffffff161415801561214357508273ffffffffffffffffffffffffffffffffffffffff168173ffffffffffffffffffffffffffffffffffffffff1614155b801561215657506121548184611669565b155b1561219857826040517fa9fbf51f00000000000000000000000000000000000000000000000000000000815260040161218f91906125fe565b60405180910390fd5b81156121fa57838573ffffffffffffffffffffffffffffffffffffffff168273ffffffffffffffffffffffffffffffffffffffff167f8c5be1e5ebec7d5bd14f71427d1e84f3dd0314c0f7b2291e5b200ac8c7c3b92560405160405180910390a45b505b836004600085815260200190815260200160002060006101000a81548173ffffffffffffffffffffffffffffffffffffffff021916908373ffffffffffffffffffffffffffffffffffffffff16021790555050505050565b61225f838383612318565b61231357600073ffffffffffffffffffffffffffffffffffffffff168373ffffffffffffffffffffffffffffffffffffffff16036122d457806040517f7e2732890000000000000000000000000000000000000000000000000000000081526004016122cb9190612694565b60405180910390fd5b81816040517f177e802f00000000000000000000000000000000000000000000000000000000815260040161230a929190613390565b60405180910390fd5b505050565b60008073ffffffffffffffffffffffffffffffffffffffff168373ffffffffffffffffffffffffffffffffffffffff16141580156123d057508273ffffffffffffffffffffffffffffffffffffffff168473ffffffffffffffffffffffffffffffffffffffff16148061239157506123908484611669565b5b806123cf57508273ffffffffffffffffffffffffffffffffffffffff166123b783611875565b73ffffffffffffffffffffffffffffffffffffffff16145b5b90509392505050565b6000604051905090565b600080fd5b600080fd5b60007fffffffff0000000000000000000000000000000000000000000000000000000082169050919050565b612422816123ed565b811461242d57600080fd5b50565b60008135905061243f81612419565b92915050565b60006020828403121561245b5761245a6123e3565b5b600061246984828501612430565b91505092915050565b60008115159050919050565b61248781612472565b82525050565b60006020820190506124a2600083018461247e565b92915050565b600081519050919050565b600082825260208201905092915050565b60005b838110156124e25780820151818401526020810190506124c7565b60008484015250505050565b6000601f19601f8301169050919050565b600061250a826124a8565b61251481856124b3565b93506125248185602086016124c4565b61252d816124ee565b840191505092915050565b6000602082019050818103600083015261255281846124ff565b905092915050565b6000819050919050565b61256d8161255a565b811461257857600080fd5b50565b60008135905061258a81612564565b92915050565b6000602082840312156125a6576125a56123e3565b5b60006125b48482850161257b565b91505092915050565b600073ffffffffffffffffffffffffffffffffffffffff82169050919050565b60006125e8826125bd565b9050919050565b6125f8816125dd565b82525050565b600060208201905061261360008301846125ef565b92915050565b612622816125dd565b811461262d57600080fd5b50565b60008135905061263f81612619565b92915050565b6000806040838503121561265c5761265b6123e3565b5b600061266a85828601612630565b925050602061267b8582860161257b565b9150509250929050565b61268e8161255a565b82525050565b60006020820190506126a96000830184612685565b92915050565b6000806000606084860312156126c8576126c76123e3565b5b60006126d686828701612630565b93505060206126e786828701612630565b92505060406126f88682870161257b565b9150509250925092565b600080fd5b600080fd5b7f4e487b7100000000000000000000000000000000000000000000000000000000600052604160045260246000fd5b612744826124ee565b810181811067ffffffffffffffff821117156127635761276261270c565b5b80604052505050565b60006127766123d9565b9050612782828261273b565b919050565b600067ffffffffffffffff8211156127a2576127a161270c565b5b6127ab826124ee565b9050602081019050919050565b82818337600083830152505050565b60006127da6127d584612787565b61276c565b9050828152602081018484840111156127f6576127f5612707565b5b6128018482856127b8565b509392505050565b600082601f83011261281e5761281d612702565b5b813561282e8482602086016127c7565b91505092915050565b600080600080600060a08688031215612853576128526123e3565b5b60006128618882890161257b565b955050602086013567ffffffffffffffff811115612882576128816123e8565b5b61288e88828901612809565b945050604086013567ffffffffffffffff8111156128af576128ae6123e8565b5b6128bb88828901612809565b935050606086013567ffffffffffffffff8111156128dc576128db6123e8565b5b6128e888828901612809565b925050608086013567ffffffffffffffff811115612909576129086123e8565b5b61291588828901612809565b9150509295509295909350565b600060e082019050818103600083015261293c818a6124ff565b9050818103602083015261295081896124ff565b9050818103604083015261296481886124ff565b9050818103606083015261297881876124ff565b90506129876080830186612685565b61299460a083018561247e565b6129a160c08301846125ef565b98975050505050505050565b6000602082840312156129c3576129c26123e3565b5b60006129d184828501612630565b91505092915050565b6129e381612472565b81146129ee57600080fd5b50565b600081359050612a00816129da565b92915050565b60008060408385031215612a1d57612a1c6123e3565b5b6000612a2b85828601612630565b9250506020612a3c858286016129f1565b9150509250929050565b6000604082019050612a5b60008301856125ef565b612a68602083018461247e565b9392505050565b600067ffffffffffffffff821115612a8a57612a8961270c565b5b612a93826124ee565b9050602081019050919050565b6000612ab3612aae84612a6f565b61276c565b905082815260208101848484011115612acf57612ace612707565b5b612ada8482856127b8565b509392505050565b600082601f830112612af757612af6612702565b5b8135612b07848260208601612aa0565b91505092915050565b60008060008060808587031215612b2a57612b296123e3565b5b6000612b3887828801612630565b9450506020612b4987828801612630565b9350506040612b5a8782880161257b565b925050606085013567ffffffffffffffff811115612b7b57612b7a6123e8565b5b612b8787828801612ae2565b91505092959194509250565b60008060408385031215612baa57612ba96123e3565b5b6000612bb885828601612630565b9250506020612bc985828601612630565b9150509250929050565b7f4e487b7100000000000000000000000000000000000000000000000000000000600052602260045260246000fd5b60006002820490506001821680612c1a57607f821691505b602082108103612c2d57612c2c612bd3565b5b50919050565b6000606082019050612c4860008301866125ef565b612c556020830185612685565b612c6260408301846125ef565b949350505050565b7f55736572206e6f74206c6f6767656420696e206f72207265676973746572656460008201527f2e00000000000000000000000000000000000000000000000000000000000000602082015250565b6000612cc66021836124b3565b9150612cd182612c6a565b604082019050919050565b60006020820190508181036000830152612cf581612cb9565b9050919050565b7f50726f6475637420616c72656164792068617320616e204e46542e0000000000600082015250565b6000612d32601b836124b3565b9150612d3d82612cfc565b602082019050919050565b60006020820190508181036000830152612d6181612d25565b9050919050565b7f496e73756666696369656e74207061796d656e7420666f72206d696e74696e6760008201527f204e46542e000000000000000000000000000000000000000000000000000000602082015250565b6000612dc46025836124b3565b9150612dcf82612d68565b604082019050919050565b60006020820190508181036000830152612df381612db7565b9050919050565b60008190508160005260206000209050919050565b60006020601f8301049050919050565b600082821b905092915050565b600060088302612e5c7fffffffffffffffffffffffffffffffffffffffffffffffffffffffffffffffff82612e1f565b612e668683612e1f565b95508019841693508086168417925050509392505050565b6000819050919050565b6000612ea3612e9e612e998461255a565b612e7e565b61255a565b9050919050565b6000819050919050565b612ebd83612e88565b612ed1612ec982612eaa565b848454612e2c565b825550505050565b600090565b612ee6612ed9565b612ef1818484612eb4565b505050565b5b81811015612f1557612f0a600082612ede565b600181019050612ef7565b5050565b601f821115612f5a57612f2b81612dfa565b612f3484612e0f565b81016020851015612f43578190505b612f57612f4f85612e0f565b830182612ef6565b50505b505050565b600082821c905092915050565b6000612f7d60001984600802612f5f565b1980831691505092915050565b6000612f968383612f6c565b9150826002028217905092915050565b612faf826124a8565b67ffffffffffffffff811115612fc857612fc761270c565b5b612fd28254612c02565b612fdd828285612f19565b600060209050601f8311600181146130105760008415612ffe578287015190505b6130088582612f8a565b865550613070565b601f19841661301e86612dfa565b60005b8281101561304657848901518255600182019150602085019450602081019050613021565b86831015613063578489015161305f601f891682612f6c565b8355505b6001600288020188555050505b505050505050565b600060408201905061308d6000830185612685565b818103602083015261309f81846124ff565b90509392505050565b7f4e487b7100000000000000000000000000000000000000000000000000000000600052601160045260246000fd5b60006130e28261255a565b91507fffffffffffffffffffffffffffffffffffffffffffffffffffffffffffffffff8203613114576131136130a8565b5b600182019050919050565b7f5573657220616c7265616479206c6f6767656420696e206f722072656769737460008201527f657265642e000000000000000000000000000000000000000000000000000000602082015250565b600061317b6025836124b3565b91506131868261311f565b604082019050919050565b600060208201905081810360008301526131aa8161316e565b9050919050565b600081905092915050565b7f697066733a2f2f00000000000000000000000000000000000000000000000000600082015250565b60006131f26007836131b1565b91506131fd826131bc565b600782019050919050565b6000815461321581612c02565b61321f81866131b1565b9450600182166000811461323a576001811461324f57613282565b60ff1983168652811515820286019350613282565b61325885612dfa565b60005b8381101561327a5781548189015260018201915060208101905061325b565b838801955050505b50505092915050565b6000613296826131e5565b91506132a28284613208565b915081905092915050565b600081519050919050565b600082825260208201905092915050565b60006132d4826132ad565b6132de81856132b8565b93506132ee8185602086016124c4565b6132f7816124ee565b840191505092915050565b600060808201905061331760008301876125ef565b61332460208301866125ef565b6133316040830185612685565b818103606083015261334381846132c9565b905095945050505050565b60008151905061335d81612419565b92915050565b600060208284031215613379576133786123e3565b5b60006133878482850161334e565b91505092915050565b60006040820190506133a560008301856125ef565b6133b26020830184612685565b939250505056fea26469706673582212204d13a353da43d13678da0036e6efd4ec8d3f0d006f95d188fb78a39a2866654b64736f6c63430008140033",
  "linkReferences": {},
  "deployedLinkReferences": {}
}